:020000040000fa
:080000000002040000000000f2
:020000040000fa
:04000800f8020000fa
:020000040000fa
:04000c00c802000026
:020000040000fa
:04001000ce0200001c
:020000040000fa
:04001400d402000012
:020000040000fa
:04001800da02000008
:020000040000fa
:04001c00f8020000e6
:020000040000fa
:04002000f8020000e2
:020000040000fa
:04002400f8020000de
:020000040000fa
:04002800f8020000da
:020000040000fa
:04002c00f8020000d6
:020000040000fa
:04003000f8020000d2
:020000040000fa
:04003400f8020000ce
:020000040000fa
:04003800f8020000ca
:020000040000fa
:04003c00f8020000c6
:020000040000fa
:04004000f8020000c2
:020000040000fa
:04004400f8020000be
:020000040000fa
:04004800f8020000ba
:020000040000fa
:04004c00f8020000b6
:020000040000fa
:04005000f8020000b2
:020000040000fa
:04005400f8020000ae
:020000040000fa
:04005800f8020000aa
:020000040000fa
:04005c00f8020000a6
:020000040000fa
:04006000f8020000a2
:020000040000fa
:04006400f80200009e
:020000040000fa
:04006800f80200009a
:020000040000fa
:04006c00f802000096
:020000040000fa
:04007000f802000092
:020000040000fa
:04007400f80200008e
:020000040000fa
:04007800f80200008a
:020000040000fa
:04007c00f802000086
:020000040000fa
:04008000f802000082
:020000040000fa
:04008400f80200007e
:020000040000fa
:04008800f80200007a
:020000040000fa
:04008c00f802000076
:020000040000fa
:04009000f802000072
:020000040000fa
:04009400f80200006e
:020000040000fa
:04009800f80200006a
:020000040000fa
:04009c00f802000066
:020000040000fa
:0400a000f802000062
:020000040000fa
:0400a400f80200005e
:020000040000fa
:0400a800f80200005a
:020000040000fa
:0400ac00f802000056
:020000040000fa
:0400b000f802000052
:020000040000fa
:0400b400f80200004e
:020000040000fa
:0400b800f80200004a
:020000040000fa
:0400bc00f802000046
:020000040000fa
:0400c000f802000042
:020000040000fa
:0400c400f80200003e
:020000040000fa
:0400c800f80200003a
:020000040000fa
:0400cc00f802000036
:020000040000fa
:0400d000f802000032
:020000040000fa
:0400d400f80200002e
:020000040000fa
:0400d800f80200002a
:020000040000fa
:0400dc00f802000026
:020000040000fa
:0400e000f802000022
:020000040000fa
:0400e400f80200001e
:020000040000fa
:0400e800f80200001a
:020000040000fa
:0400ec00f802000016
:020000040000fa
:0400f000f802000012
:020000040000fa
:0400f400f80200000e
:020000040000fa
:0400f800f80200000a
:020000040000fa
:0400fc00f802000006
:020000040000fa
:04010000f802000001
:020000040000fa
:04010400f8020000fd
:020000040000fa
:04010800f8020000f9
:020000040000fa
:04010c00f8020000f5
:020000040000fa
:04011000f8020000f1
:020000040000fa
:04011400f8020000ed
:020000040000fa
:04011800f8020000e9
:020000040000fa
:04011c00f8020000e5
:020000040000fa
:04012000f8020000e1
:020000040000fa
:04012400f8020000dd
:020000040000fa
:04012800f8020000d9
:020000040000fa
:04012c00f8020000d5
:020000040000fa
:04013000f8020000d1
:020000040000fa
:04013400f8020000cd
:020000040000fa
:04013800f8020000c9
:020000040000fa
:04013c00f8020000c5
:020000040000fa
:04014000f8020000c1
:020000040000fa
:04014400f8020000bd
:020000040000fa
:04014800f8020000b9
:020000040000fa
:04020800f8020000f8
:020000040000fa
:04020c00e00200000c
:020000040000fa
:04021000e602000002
:020000040000fa
:04021400ec020000f8
:020000040000fa
:04021800f2020000ee
:020000040000fa
:04021c00f8020000e4
:020000040000fa
:04022000f8020000e0
:020000040000fa
:04022400f8020000dc
:020000040000fa
:04022800f8020000d8
:020000040000fa
:04022c00f8020000d4
:020000040000fa
:04023000f8020000d0
:020000040000fa
:04023400f8020000cc
:020000040000fa
:04023800f8020000c8
:020000040000fa
:04023c00f8020000c4
:020000040000fa
:04024000f8020000c0
:020000040000fa
:04024400f8020000bc
:020000040000fa
:04024800f8020000b8
:020000040000fa
:04024c00f8020000b4
:020000040000fa
:04025000f8020000b0
:020000040000fa
:04025400f8020000ac
:020000040000fa
:04025800f8020000a8
:020000040000fa
:04025c00f8020000a4
:020000040000fa
:04026000f8020000a0
:020000040000fa
:04026400f80200009c
:020000040000fa
:04026800f802000098
:020000040000fa
:04026c00f802000094
:020000040000fa
:04027000f802000090
:020000040000fa
:04027400f80200008c
:020000040000fa
:04027800f802000088
:020000040000fa
:04027c00f802000084
:020000040000fa
:04028000f802000080
:020000040000fa
:04028400f80200007c
:020000040000fa
:04028800f802000078
:020000040000fa
:04028c00f802000074
:020000040000fa
:04029000f802000070
:020000040000fa
:04029400f80200006c
:020000040000fa
:04029800f802000068
:020000040000fa
:04029c00f802000064
:020000040000fa
:0402a000f802000060
:020000040000fa
:0402a400f80200005c
:020000040000fa
:0402a800f802000058
:020000040000fa
:0402ac00f802000054
:020000040000fa
:0402b000f802000050
:020000040000fa
:0402b400f80200004c
:020000040000fa
:0402b800f802000048
:020000040000fa
:0402bc00f802000044
:020000040000fa
:0402c000f802000040
:020000040000fa
:0402c400f80200003c
:020000040000fa
:0402c800f802000038
:020000040000fa
:0402cc00f802000034
:020000040000fa
:0402d000f802000030
:020000040000fa
:0402d400f80200002c
:020000040000fa
:0402d800f802000028
:020000040000fa
:0402dc00f802000024
:020000040000fa
:0402e000f802000020
:020000040000fa
:0402e400f80200001c
:020000040000fa
:0402e800f802000018
:020000040000fa
:0402ec00f802000014
:020000040000fa
:0402f000f802000010
:020000040000fa
:0402f400f80200000c
:020000040000fa
:0402f800f802000008
:020000040000fa
:0402fc00f802000004
:020000040000fa
:04030000f8020000ff
:020000040000fa
:04030400f8020000fb
:020000040000fa
:04030800f8020000f7
:020000040000fa
:04030c00f8020000f3
:020000040000fa
:04031000f8020000ef
:020000040000fa
:04031400f8020000eb
:020000040000fa
:04031800f8020000e7
:020000040000fa
:04031c00f8020000e3
:020000040000fa
:04032000f8020000df
:020000040000fa
:04032400f8020000db
:020000040000fa
:04032800f8020000d7
:020000040000fa
:04032c00f8020000d3
:020000040000fa
:04033000f8020000cf
:020000040000fa
:04033400f8020000cb
:020000040000fa
:04033800f8020000c7
:020000040000fa
:04033c00f8020000c3
:020000040000fa
:04034000f8020000bf
:020000040000fa
:04034400f8020000bb
:020000040000fa
:04034800f8020000b7
:020000040000fa
:100400000f8020000e7f22000e01880000000000f7
:10041000000020000000e000020032000001200087
:100420002002880014000700730007000000e000ad
:1004300003003a0000002000010020000200370005
:100440000000200001002000810f70000100320038
:1004500014000700000020000000e000020032004d
:10046000000002000000000028030200000000005d
:100470000040da000000fe004440a9000000200017
:100480000000e0000300320000002000a00188000e
:100490004440a800000006008a1f78008b1f7800e7
:1004a0000000060091018800800478000000eb0045
:1004b0001a003700e284440032a0b4009905ba0063
:1004c000e284440032a0b4009906ba00e2844400f9
:1004d00032a0b4000006eb00476fde00fd07b2005b
:1004e000636ce10003003a00ebff07000000eb0043
:1004f0000a003700606ce10004003a00005deb0088
:100500008b05e900fdff3e00040037006168e10053
:10051000010032000086eb000b00070019c7ba008b
:100520001905ba000e04e00003003a000a00e000da
:10053000e0ff3a0000000600fe07b2009e018800be
:100540008a047800f5ff3700395dba008b05e900b1
:100550000c003200295dba008b05e900080032006a
:100560000c00e00003003a00e284440032a0b40032
:10057000f5ff370019ddba008b05e900faff3a00f4
:100580008904e800e184440032a0b40000000600c1
:100590000000fa008020a900ffff37000000fa00e9
:1005a0008060a900ffff37000000fa008040a9002a
:1005b000ffff37000000fa008080a900ffff37002e
:1005c0000000fa008020a900ffff37000000fa00b9
:1005d0008060a900ffff37000000fa008040a900fa
:1005e000ffff37000000fa008080a900ffff3700fe
:0c05f0000000fa00ffff370000000500cb
:020000040000fa
:1005fc000000fa000421ef000080fa000000060061
:10060c000200fa00000f78000021ef001e007800b5
:10061c006f00b90000007800100888008460a90001
:10062c0005e1a800000000002004800068006000c4
:10063c000000e000fcff320005e1a9000080fa0098
:10064c00000006001000fa00940007008300070069
:10065c00cce2a900c0002000e9ff07005016800082
:10066c004a00de00614060000080fb00000f780053
:10067c00cce2a80060002000e1ff0700ccc2a9007a
:10068c0060002000deff0700501680004a00de00ec
:10069c00614060000080fb0010079800ccc2a800ed
:1006ac0060002000d6ff0700ccc2a900600020002b
:1006bc00d3ff0700501680004a00de006140600046
:1006cc000080fb0020079800ccc2a800600020002e
:1006dc00cbff0700ccc2a90060002000c8ff0700b8
:1006ec00501680004a00de00614060000080fb0074
:1006fc0030079800ccc2a80060002000c0ff0700a3
:10070c00ccc2a90060002000bdff0700501680007d
:10071c004a00de00614060000080fb00400798004a
:10072c00ccc2a80060002000b5ff0700ccc2a90015
:10073c0060002000b2ff0700501680004a00de0067
:10074c00614060000080fb0050079800ccc2a800fc
:10075c0060002000aaff0700ccc2a90060002000a6
:10076c00a7ff0700501680004a00de0061406000c1
:10077c000080fb0060079800ccc2a800600020003d
:10078c009fff0700ccc2a900600020009cff07005f
:10079c00501680004a00de00614060000080fb00c3
:1007ac0070079800ccc2a8006000200094ff0700de
:1007bc001e00780000407800614060000080fb0063
:1007cc00610060004c00dd006116800001c0a100da
:1007dc0001007000601688001e0090000040780038
:1007ec00614060000080fb00610060004d00dd0096
:1007fc006116800001d0a100010070006016880015
:10080c002e00900000407800614060000080fb00ea
:10081c00610060004e00dd006116800001e0a10067
:10082c0001007000601688003e00900000407800c7
:10083c00614060000080fb004f00dd00621680000c
:10084c00f1ff270081006100010070006016880034
:10085c0000e823006aff07007dff37000000fa0064
:10086c00c9e2a900c9c2a900c9a2a900c982a900ec
:10087c00c8c2a900c8e2a900c942a800cde2a800dc
:10088c00cdc2a800cda2a800cd82a800ccc2a800e1
:10089c00cce2a8000080fa00000006000000fa007c
:0808ac000080fa0000000600c4
:020000040000fa
:020000040001f9
:0457fc002d3f00003d
:00000001FF
